:1000000000800020BD0100001D23000059220000D7
:1000100059220000592200005922000059220000F4
:100020005922000059220000592200001D2300001F
:100030001D230000592200001D230000FD1F0000A9
:100040001D2300001D2300001D2300001D230000B0
:100050001D2300001D2300001D2300001D230000A0
:100060001D2300001D2300001D2300001D23000090
:100070001D2300001D2300001D2300001D23000080
:100080001D2300001D2300001D2300001D23000070
:100090001D2300001D2300001D2300001D23000060
:1000A0001D2300001D2300001D2300001D23000050
:1000B0001D2300001D2300001D2300001D23000040
:1000C0001D2300001D2300001D2300001D23000030
:1000D0001D2300001D2300001D2300001D23000020
:1000E0001D2300001D2300001D2300001D23000010
:1000F0001D230000251F00001D2300004D1E0000D1
:100100001D230000BD1D00001D2300001D23000055
:100110001D2300001D2300001D2300001D230000DF
:100120001D2300001D2300001D2300001D230000CF
:100130001D2300001D2300001D2300001D230000BF
:100140001D2300001D2300001D2300001D230000AF
:100150001D2300001D2300001D2300001D2300009F
:100160001D2300007D2A00001D2300001D23000028
:100170001D2300001D2300001D2300001D2300007F
:100180001D2300001D2300001D2300001D2300006F
:100190001D2300001D2300001D2300001D2300005F
:1001A0001D2300001D2300001D2300001D2300004F
:1001B0001D2300001D2300001D23000008B55B4B1C
:1001C0004CF220521A804DF628121A8000BF00BF50
:1001D000102223F80E2CA3F51F43DE3B4FF01062D4
:1001E0001A60534A9A60534ADA60534A136813F408
:1001F000807304D151490B604FF4A8531360504BE6
:100200001A78100703D51A7842F008021A704D4B7D
:100210004D492A221A704D4A4D4B8B4204D252F856
:10022000040F43F8040BF8E74A4B4B4900228B427A
:1002300002D243F8042BFAE74849494A002352F80E
:10024000230041F8230001336F2BF8D1454B464A78
:10025000802103F8011B9342FBD1444B3F4A1A60B3
:10026000434B8A221A70A3F5805324225A70A0228D
:100270001A709A799107FCD59A79D206FCD43D4A36
:10028000937903F00C03082B3A4BF9D103221A712E
:1002900046225A719A799406FCD5364A9179354BA3
:1002A0004806FBD5344A4FF0827111600921516034
:1002B00020221A709A7902F00C020C2AFAD12F4BE4
:1002C0002F4A1A602F4B304A1A60002407225C60C4
:1002D00043F8042C2D4AC3F80C2D62B603F094FCAD
:1002E000164B1A68D1070AD5294A2A491C6014609E
:1002F00042F8041C10221A60274A28491160284A33
:10030000127852060ED52449244A0868904209D131
:100310001F48204C00221A60026040F8044C102054
:1003200018600A6003F02EFE00F0A0F80E200540D1
:10033000823F04000100002B10D0034014D0034082
:1003400002D0074000E007406893FF1F6C9A00004E
:100350002087FF1F6893FF1FA897FF1F0082FF1FC2
:100360000000000000E400E05FE400E008ED00E0D1
:100370000050064000400640448004400480044091
:10038000C010050014E000E0BFD4010000002020F0
:1003900004D00340802593041CE00340A5C3945A75
:1003A00000F00740FFFFFFFFFFFFFFFFFFFFFFFF22
:1003B000FFFFFFFFFFFFFFFFFFFFFFFFFFFFFFFF4D
:1003C000FFFFFFFFFFFFFFFFFFFFFFFFFFFFFFFF3D
:1003D000FFFFFFFFFFFFFFFFFFFFFFFFFFFFFFFF2D
:1003E000FFFFFFFFFFFFFFFFFFFFFFFFFFFFFFFF1D
:1003F000FFFFFFFFFFFFFFFFFFFFFFFFFFFFFFFF0D
:10040000FFFFFFFFFFFFFFFFFFFFFFFFDEF9FFFF23
:1004100010B5054C237833B9044B13B10448AFF33E
:1004200000800123237010BD6893FF1F00000000AF
:10043000689A0000084B10B51BB108490848AFF393
:1004400000800848036803B910BD074B002BFBD0A0
:10045000BDE81040184700BF000000006C93FF1F6C
:10046000689A00006893FF1F000000002DE9804893
:10047000144BDFF864B01D68134987B05C4640F642
:10048000C41004E00F4B1B685B1B83420CD80B7835
:10049000002BF7D09BF800309E07F3D0094B1B6868
:1004A00062689B1A182BEDD90B7833B3074C206880
:1004B00018B102F09BFA00232360054C054D264637
:1004C0000EE000BF4096FF1F4496FF1F4896FF1F97
:1004D0004C96FF1F5C96FF1F8493FF1F02F086FA65
:1004E00072B6A3682BB11988AA885868B060521AEE
:1004F000AA8062B61846002BF0D1BE4BBE4A01243A
:100500004FF4A27582F880421D601A6822F0200222
:100510001A6002F08FF8B94BB94A82F880421D6028
:10052000196821F02001196092F88012002900F06A
:100530005A8382F88040642003F042F8B14802F008
:1005400009F8AF4B93F88022002A00F05183012272
:1005500083F80021AC4C23684FF000412022D9627F
:100560005A63DA6A002AFCDA4FF000419722986B4E
:10057000D9625A63DA6A002AFCDAA14A9B6B92F8C4
:100580008032002B00F03F83012382F88030E37A31
:100590009D4A33B1D90702D59C4B92691A6001F08C
:1005A000C3FF00236420CBF80830CBF80C30CBF825
:1005B0001030CBF81430CBF81830CBF81C30CBF817
:1005C0002030CBF8243002F0FBFF03F0FDF802F0FE
:1005D00031F88F4B8F4A4FF4A271012082F88002CC
:1005E0001960196821F02001196092F88012002921
:1005F00000F0048382F88000874801F0ABFFFF2100
:10060000202003F079FA1021232003F075FA20212D
:10061000212003F071FA0821222003F06DFAE37A19
:10062000794A33B1DB0702D5784B92691A6001F041
:100630007BFF01F013F87949794B7A4E7A4D7B4C68
:1006400000204FF4807281F8800241F2A8691A609C
:100650004FF47A7072B6764A3368D2F800E02A68AE
:1006600062B6570103D5322B88BF0EF1010EC3F5D8
:10067000EA33BF33A4FB03239A0900FB0EFC91F875
:100680000032012BFBD191F80032002BFBD172B666
:10069000674F3368D7F800E0D5F8008062B618F0ED
:1006A000806F03D0322B88BF0EF1010EC3F5EA3301
:1006B000BF33A4FB0373C2EB9313CCEB030300FB28
:1006C0000E334B45C6DD564A136813F4E06305D17B
:1006D00052484FF4807180F880321160554B564D6E
:1006E000564C57485749584AC3F89C51C3F8A04143
:1006F000C3F8A401C3F8A811C3F8AC2172B6484AE4
:10070000DFF86CE113685149CEF8081023F4702328
:1007100043F0847141F480311360116062B64C4B38
:100720004C4ACBF828204C4E4C4DDFF84891DFF86E
:1007300048A14B48DFF844814A49DFF844C101220F
:1007400083F880224FF4A27333603768CBF830A06F
:1007500027F02007376089F880222B602F68424EEF
:10076000002427F02007CBF82C402F6088F8802247
:1007700003600568CBF8584025F0200505608CF82B
:1007800080220B600B68394FCBF8844023F02003A4
:100790000B6010228EF83020CBF85460CBF88060CC
:1007A000CBF85C70CBF8887003F00EF801F010FF06
:1007B00000F054FFCBF8AC40CBF8B040CBF8B440DD
:1007C00001F006FF00F00AFD01F002FF059472B689
:1007D000144B154A16491B680968126862B6550120
:1007E00002D5322B88BF01311048C3F5EA33BF333D
:1007F00048E000BF40A004404008FE430CB0044065
:100800000C10FE4303200038E488FF1F00E100E0E5
:1008100010B004401010FE43000001B80810FE4361
:1008200008B0044018E000E004ED00E08988888802
:100830004096FF1F0082FF1FD187FF1FA587FF1F64
:100840007987FF1F4D87FF1F2187FF1F693B00002E
:100850003000FE439A99993E309004403490044011
:1008600010C004401CC00440713D4A3F00001644C3
:10087000FC87FF1F3400FE43000061441018FE4354
:100880001C18FE434FF47A7202FB01F2A0FB030333
:1008900002EB9313CBF8B83000F0A0FCDBF8BC00FF
:1008A000A0F5BD6008F030FCC04908F035FDC04936
:1008B000044608F025FE002840F0BB81BD492046D3
:1008C00008F032FE002800F06D84BA48DBF8E04002
:1008D000214608F063FBB84908F06AFC214608F09D
:1008E0005FFBDBF8C030CBF8E000A3F5BD6008F09B
:1008F0000BFCAE4908F010FDAD49044608F000FEBF
:10090000002840F09481AB49204608F00DFE0028F5
:1009100000F05384A748DBF8E440214608F03EFB92
:10092000A54908F045FC214608F03AFB0446DBF8EF
:10093000C400CBF8E440A0F5BD6008F0E5FB9B499E
:1009400008F0EAFC9A49054608F0DAFD002840F074
:100950006C819849284608F0E7FD002800F02A84B9
:100960009448DBF8E850294608F018FB924908F053
:100970001FFC294608F014FB0546DBF8C800CBF83D
:10098000E850A0F5BD6008F0BFFB884908F0C4FC42
:100990008749064608F0B4FD002840F044818549A7
:1009A000304608F0C1FD002800F001848148DBF8E2
:1009B000EC60314608F0F2FA7F4908F0F9FB314665
:1009C00008F0EEFA0646DBF8CC00CBF8EC60A0F5B8
:1009D000BD6008F099FB754908F09EFC7449074614
:1009E00008F08EFD002840F01C817249384608F05E
:1009F0009BFD002800F0D9836E48DBF8F070394683
:100A000008F0CCFA6C4908F0D3FB394608F0C8FA74
:100A10008146DBF8D000CBF8F090A0F5BD6008F07F
:100A200073FB624908F078FC6149074608F068FDED
:100A3000002840F0F4805F49384608F075FD002832
:100A400000F0C4835B48DBF8F470394608F0A6FA7E
:100A5000594908F0ADFB394608F0A2FA8246DBF8A6
:100A6000D400CBF8F4A0A0F5BD6008F04DFB4F49D1
:100A700008F052FC4E49074608F042FD002840F0BD
:100A8000CC804C49384608F04FFD002800F09C838C
:100A90004848DBF8F870394608F080FA464908F013
:100AA00087FB394608F07CFADBF8D830CBF8F80041
:100AB000A3F5BD6008F028FB3C4908F02DFC3C493B
:100AC000074608F01DFD002840F0A580394938464A
:100AD00008F02AFD002800F075833648DBF8FC702A
:100AE000394608F05BFA344908F062FB394608F0F1
:100AF00057FADBF8DC30CBF8FC00A3F5BD6008F05A
:100B000003FB2A4908F008FC2949074608F0F8FCCD
:100B100000287ED12749384608F006FD002800F05D
:100B20004F832448DBF80071394608F037FA224930
:100B300008F03EFB394608F033FA204ADBF804316E
:100B4000D2F800801E4ACBF800011768CBF8B080BD
:100B5000CBF8B470002B6ED0012B00F08381194BC1
:100B600093F88022002A00F04B81012283F8802034
:100B7000DBF82831144A01333C2B00F31481C2F80E
:100B80002831DBF8B830CBF82C319BF830310E4AE5
:100B9000002B7FF41CAE0D4982F830310C4B0978E4
:100BA0001B780C4B1B780C4B1B7817E0C3F5984057
:100BB0000000C8C20000C8420AD7233C9496FF1F19
:100BC0009896FF1F4008FE438493FF1FB595FF1FB3
:100BD000B695FF1F4595FF1F4695FF1F8B4B1B7852
:100BE0008B4B1B78F3E51A6842F003021A60A2E40B
:100BF000884A136823F002031360ABE41A6842F0DA
:100C000003021A60F8E4834A136843F00303136095
:100C1000BDE4814886E7804860E77F4839E77E4841
:100C200011E77D48E9E67C48C1E67B4899E67A48C9
:100C300071E679484AE6794B93F88022002A00F061
:100C40008782012283F800210023194618461A469C
:100C500000F01CFF2046724908F048FC002887D0AD
:100C60004846704908F060FC002881D028466C494D
:100C700008F03CFC00283FF47BAF3046684908F0A0
:100C800035FC00283FF474AF5046664908F04CFC30
:100C900000283FF46DAF02F097FD634B059A1A6090
:100CA000624B1A60624B1A60624B1A6072B66249FC
:100CB000624B634A1B680868126862B6540102D529
:100CC000322B88BF01305F49C3F5EA334FF47A72A3
:100CD000BF33A1FB031302FB00F000EB931008F0FD
:100CE0000FFA594B186000F0B9FC4F4B059A1A6087
:100CF0004E4BCBF8AC201A604D4BCBF8B0201A60AD
:100D00004C4BCBF8B4201A6072B64B494B4B4C4A53
:100D10001B680868126862B6510102D5322B88BF81
:100D200001304849C3F5EA334FF47A72BF33A1FB6F
:100D3000031302FB00F000EB931008F0E1F9424BC3
:100D4000186000F04BFA384B059A1A60374B1A605E
:100D5000374B1A60374B1A6072B63749374B384AEF
:100D60001B680868126862B6520102D5322B88BF30
:100D700001303449C3F5EA334FF47A72BF33A1FB33
:100D8000031302FB00F000EB931008F0B9F9012304
:100D9000CBF80431DBF828312B4A01333C2B1060AF
:100DA0002A4A7FF7ECAED2F82C11D2F8B800002313
:100DB000C2F82831401A08F0A7F9254908F0ACFA22
:100DC00001464FF07E5008F0A7FA07F07DFA024680
:100DD0000B462048204901F06DFC144B186807F0C1
:100DE00073FA114B044618680D4607F06DFA224657
:100DF000CDE900012B461949164801F05BFCC0E61D
:100E0000174A136843F003031360B1E6D494FF1F3D
:100E1000D594FF1F0CB004400000C8C24008FE4338
:100E20000000B4C20000B4429496FF1F9896FF1FC2
:100E30009C96FF1FA096FF1F4096FF1F18E000E042
:100E400004ED00E089888888A496FF1F8493FF1F23
:100E5000002474490889FF1F8895000090950000C0
:100E600040A00440B44A92F88012002900F0768134
:100E700082F880304846B14908F04EFADBF8AC10F1
:100E800008F08EF8AE4BCBF8AC00196808F086F885
:100E9000DBF84010CBF834008146CBF83C0008F07A
:100EA0007FF8DBF83810CBF840000490484608F093
:100EB00075F8DBF82810CBF844000390484608F09A
:100EC00077F9049BDBF82C100290184608F070F9B3
:100ED0000146029808F064F8039ADBF8301002909B
:100EE000104608F065F9029B0146184608F058F8CC
:100EF0004FF07A5102463046CBF84820CBF84C20D0
:100F0000CBF808210392CBF8389008F051F941460C
:100F100008F044F8DBF86C10CBF860008046CBF8A2
:100F2000680008F03DF8DBF86410CBF86C008146EF
:100F3000404608F033F8DBF85410CBF87000064652
:100F4000404608F035F9DBF858100290484608F0A2
:100F50002FF9029B0146184608F022F8DBF85C10D6
:100F60008146304608F024F90146484608F018F852
:100F70004FF07A510646CBF874002846CBF86480CF
:100F8000CBF87860CBF80C6108F012F9394608F01C
:100F900005F8DBF89810CBF88C000746CBF89400E6
:100FA00007F0FEFFDBF89010CBF89800804638463B
:100FB00007F0F4FFDBF88010CBF89C0005463846BC
:100FC00008F0F6F8DBF884108146404608F0F0F8A7
:100FD0000146484607F0E4FFDBF8881080462846C3
:100FE00008F0E6F80146404607F0DAFF5549CBF82D
:100FF000907005462046CBF8A050CBF8A450CBF813
:10100000105107F0CDFF4FF07C5108F0D1F84E4958
:10101000CBF814010446504608F068FA039A48B128
:101020004FF07F512046029208F060FA002840F00D
:101030009B80029A02921146204607F0AFFF029A67
:1010400081461146204607F0ABFF314682464846AE
:1010500007F0A4FF294607F0A1FF31460746504696
:1010600007F09CFF294607F09BFF3146804650461B
:1010700007F096FF294607F091FF31468246484621
:1010800007F08EFF294607F08BFF00210546384602
:1010900008F036FA00286CD10021404608F030FAFA
:1010A00000286DD10021504608F02AFA00286FD19F
:1010B0000021284608F024FA002871D12149384639
:1010C00008F032FA00B11F4F1E49CBF818714046A4
:1010D00008F02AFA08B1DFF86C801A49CBF81C81B5
:1010E000504608F021FA08B1DFF858A01549CBF8AE
:1010F00020A1284608F018FA00B1124DCBF824516F
:1011000020464FF07F51114C08F0F0F960B1059B7B
:10111000C4F818310025C4F81C31C4F82031C4F8D3
:101120002431AA46A8462F462B4652464146384609
:1011300000F0ACFC1CE500BF4008FE430080BB444F
:101140009C96FF1F0000C8420000B4428493FF1F1A
:101150001F4A136823F00203136075E51C4A1368E5
:1011600043F00303136085E61A4A0023C2F80431F2
:101170000BE500214046002708F0C2F9002891D075
:10118000002150464FF0000808F0BAF900288FD02F
:10119000002128464FF0000A08F0B2F900288DD04F
:1011A00000258BE72046FFF791BB384625E4304603
:1011B000FFF7FDBB2846FFF7D4BB2046FFF7ABBBCC
:1011C0003846AFE4384689E4384662E438463AE4C3
:1011D00040A004408493FF1F704700BF2DE9F04FEB
:1011E000AD4CE37A83B0EBB172B6E37ADD071A4611
:1011F00006D5AA49E26808680240A2610A601A4658
:10120000980706D5A64923690868E27A0340E36196
:101210000B60510705D5A34A636911680B4023622F
:10122000136062B62368A04AD968914206D09F4DE8
:101230009F48A0491D60DA60186119609E4A92F8C3
:101240008012002940F0AB819C4A136823F002030E
:10125000136023684FF00041A922D9625A63DA6A09
:10126000002AFCDA4FF000410022986BD9625A63E1
:10127000DA6A002AFCDA904A996B92F88032002BE5
:1012800000F09181012382F880308B4B93F880220B
:10129000090209B2002A00F0C281012283F800216C
:1012A00023684FF00040A822D8625A63DA6A002A05
:1012B000FCDA4FF0004000229D6BD8625A63DA6A74
:1012C000002AFCDA7C4A986B92F88032C0B2002B7C
:1012D00000F09F81012382F88030794D084307F0A8
:1012E00013FF296807F05AFE764907F061FF724B39
:1012F000686093F880220646002A00F0848101226B
:1013000083F8002123684FF00041AB22D9625A6371
:10131000DA6A002AFCDA4FF000410022986BD962A9
:101320005A63DA6A002AFCDA634A996B92F88032CF
:10133000002B00F06281012382F880305E4B93F82D
:101340008022090209B2002A00F05181012283F8AB
:10135000002123684FF00040AA22D8625A63DA6A5B
:10136000002AFCDA4FF0004000229F6BD8625A63DB
:10137000DA6A002AFCDA504A986B92F88032C0B2DE
:10138000002B00F02E81012382F88030084307F003
:10139000BBFEA96807F002FE4A4907F009FF464B69
:1013A000E86093F880220746002A00F014810122A9
:1013B00083F8002123684FF00041AD22D9625A63BF
:1013C000DA6A002AFCDA4FF000410022986BD962F9
:1013D0005A63DA6A002AFCDA374A996B92F880324B
:1013E000002B00F0F280012382F88030324B93F81A
:1013F0008022090209B2002A00F0E180012283F86C
:10140000002123684FF00040AC22D8625A63DA6AA8
:10141000002AFCDA4FF000400022D3F838E0D8620E
:101420005A63DA6A002AFCDA234A986B92F880320F
:10143000C0B2002B00F0BD80012382F88030084349
:1014400007F062FE2969DFF88480DFF884B0DFF8F6
:1014500084A007F0A3FD1B4907F0AAFED8F800906E
:1014600001904946304607F0A3FEDBF80010164E07
:1014700007F096FD4946CBF80000384607F098FE85
:10148000DAF8001007F08CFD019BCAF8000049460D
:10149000184607F08DFE1FE0E488FF1F80E100E0A2
:1014A00084E100E088E100E0000001B801401F0095
:1014B000000001F800001F801010FE4310B004402F
:1014C000B894FF1F295C8F3C9C96FF1FA096FF1FBE
:1014D0009496FF1F9896FF1F316807F061FD3060FA
:1014E00072B6534F534B544A1B683868126862B641
:1014F000520102D5322B88BF0130504A504EC3F5FD
:10150000EA33BF33A2FB03234FF47A7202FB00F0ED
:1015100000EB931007F0F4FD316807F03FFD6861C0
:1015200072B6444B444A1B683868126862B6570169
:1015300002D5322B88BF01304049C3F5EA334FF45E
:101540007A72BF33A1FB031302FB00F000EB931090
:1015500007F0D6FD3B493060686907F0DDFE0021E9
:10156000054607F0C3FF00285FD1E37AC8F80050B2
:1015700035491A4683B1D80703D5344A89691160C1
:101580001A46990703D5324BE169E27A196053078D
:1015900002D5304B226A1A6003B0BDE8F08F0121FA
:1015A00082F8001156E62C4A136843F003031360D7
:1015B0006BE6294A136843F0030313603FE7264AAA
:1015C000136823F0020313601BE7234A136843F0F8
:1015D000030313600AE7204A136823F00203136031
:1015E000E8E61D4A136843F003031360CEE61A4A87
:1015F000136823F002031360ABE6174A136843F045
:10160000030313609AE6144A136823F0020313607D
:1016100078E6114A136843F0030313605DE60E4A4F
:10162000136823F0020313603AE605F100459CE7D6
:101630004096FF1F18E000E004ED00E089888888EC
:10164000A496FF1F00247449E488FF1F00E100E016
:1016500004E100E008E100E010B004402DE9F04FA3
:10166000AA4FFB7A83B0EBB172B6FB7ADC071A465D
:1016700006D5A749FA6808680240BA610A601A46A6
:10168000980706D5A3493B690868FA7A0340FB61CD
:101690000B60510705D5A04A7B6911680B403B627E
:1016A000136062B63B689D4AD968914206D09C4C53
:1016B0009C489D491C60DA6018611960642001F043
:1016C0007FFF4FF000094FF41673984C984ECDF8F9
:1016D0000090CB4601934FF0010A4FF000454FF0C8
:1016E000A708002394F88012002900F06C8184F888
:1016F00000A13968CD62C1F83480C86A0028FCDADC
:10170000886BCD624B63C86A0028FCDA896B94F859
:101710008002C9B2002800F0518184F880A00A0735
:10172000E0D594F88012002900F0998184F800A196
:101730003968A920CD624863C86A0028FCDA002015
:101740008B6BCD624863C86A0028FCDA896B94F819
:101750008002002800F0628184F880A094F8800262
:101760004FEA012E0FFA8EFE002800F0648184F803
:1017700000A13968A820CD624863C86A0028FCDA55
:1017800000208B6BCD624863C86A0028FCDA886B46
:1017900094F88012C0B2002900F05C8184F880A027
:1017A0004EEA000007F0B0FC0146584607F0F8FB8F
:1017B00094F880128346002900F0478184F800A144
:1017C0003968AB20CD624863C86A0028FCDA002083
:1017D0008B6BCD624863C86A0028FCDA896B94F889
:1017E0008002002800F02C8184F880A094F8800208
:1017F0004FEA012E0FFA8EFE002800F0058184F8D2
:1018000000A13968AA20CD624863C86A0028FCDAC2
:1018100000208B6BCD624863C86A0028FCDA886BB5
:1018200094F88012C0B2002900F0E98084F880A00A
:101830004EEA000007F068FC0146009807F0B0FB94
:10184000009094F88012002900F0D48084F800A160
:101850003968AD20CD624863C86A0028FCDA0020F0
:101860008B6BCD624863C86A0028FCDA896B94F8F8
:101870008002002800F0AC8084F880A094F88002F8
:101880004FEA012E0FFA8EFE002800F0AE8084F899
:1018900000A13968AC20CD624863C86A0028FCDA30
:1018A00000208B6BCD624863C86A0028FCDA886B25
:1018B00094F88012C0B2002900F0AB8084F880A0B8
:1018C0004EEA000007F020FC0146484607F068FB9E
:1018D000019B013B814601937FF403AF58461549B4
:1018E000154C164E164D07F017FD12492060009852
:1018F00007F012FD0F49A060484607F00DFD1149A1
:10190000114A20610023336020E000BFE488FF1FFC
:1019100080E100E084E100E088E100E0000001B83F
:1019200001401F00000001F800001F801010FE435E
:1019300010B0044000001644B894FF1F9C96FF1F8F
:101940009896FF1F9496FF1FA096FF1F2B600B60B9
:10195000136072B64449454B454A1B6808681268D3
:1019600062B6540102D5322B88BF01304149424C46
:10197000C3F5EA334FF47A72BF33A1FB031302FBC2
:1019800000F000EB931007F0BBFBFB7A20601A46D7
:101990003A4983B1D80703D5394A896911601A4693
:1019A000990703D5374BF969FA7A1960530702D5BD
:1019B000354B3A6A1A6003B0BDE8F08F306840F0EA
:1019C00003003060ABE6316821F00201316090E63F
:1019D000306840F00300306094F880024FEA012E36
:1019E0000FFA8EFE00287FF452AF316821F0020119
:1019F00031604EE7316821F00201316028E731683B
:101A000041F00301316013E7316821F002013160D8
:101A1000F7E6316841F00301316051E7306840F08A
:101A20000300306094F880024FEA012E0FFA8EFE18
:101A300000287FF49CAE316821F00201316098E605
:101A4000306840F003003060D0E6316821F00201D8
:101A50003160B5E6316841F003013160A0E63168DC
:101A600021F00201316063E64096FF1F18E000E0BC
:101A700004ED00E089888888A496FF1FE488FF1F92
:101A800000E100E004E100E008E100E0F8B50E4606
:101A9000002115461C46074607F032FD002840F09D
:101AA00042810021304607F02BFD002840F03981AB
:101AB0000021284607F024FD002840F03081002155
:101AC000204607F01DFD002840F02781AA4938462E
:101AD00007F02AFD002874D13846A74907F01CFCFE
:101AE000A64907F065FB07F029FDA34907463046E4
:101AF00007F01AFD00286CD130469F4907F00CFC16
:101B00009E4907F055FB07F019FD9B4906462846FC
:101B100007F00AFD002864D12846974907F0FCFB2E
:101B2000964907F045FB07F009FD93490546204615
:101B300007F0FAFC00285CD18F49204607F0ECFB47
:101B40008E4907F035FB07F0F9FC8D4B1A7801211F
:101B5000002F01FA02F340F3D980BB424CD98949E6
:101B6000894C096801FB0777D74088492760002E18
:101B70004FF451740C6058DD9E4260D3844991F853
:101B80008042002C40F0DC80824C216841F003014F
:101B9000216080497E4E4FF4A274012786F880723E
:101BA0000C600C68002D24F020040C6056DC7A498F
:101BB00091F88042002C00F0D380012481F800418C
:101BC00058E06D4930464FF6FF7707F0ADFC00282E
:101BD00092D0694928464FF6FF7607F0A5FC002809
:101BE0009AD0654920464FF6FF7507F09DFC002806
:101BF000A2D04FF6FF70A8E7684C94F88072002FCF
:101C000040F09B80614C216841F003012160634CEE
:101C10005E49012784F880724FF4A2740C600C684E
:101C2000002E24F020040C60A6DC594991F8804273
:101C3000002C00F08980012481F80041A9E7514976
:101C4000574F0C6801F5803104FB06662C31D640F5
:101C50004FF45174002D3E600C60A8DD9D4220D3EE
:101C60004D4991F88042002C63D14E4C216841F0DF
:101C7000030121604B49484D4FF4A274012685F8B9
:101C800080620C600C68002824F020040C6017DCD3
:101C9000454B93F88022002A68D0012283F8002166
:101CA00019E04249424E0C6801F5A03104FB05558C
:101CB0000831D54040F24444002835600C60E7DD2F
:101CC000984215D3384B93F8802272BB394A136877
:101CD00043F003031360374B33494FF4A2720120E2
:101CE00081F880021A601A6822F020021A60F8BD9A
:101CF0002E4B31491C6803F5A033143304FB00005C
:101D0000D04040F2444208601A60F8BD234C94F879
:101D10008072FFB184F8001179E70024D6E600252F
:101D2000CDE60026C4E60027BBE6012283F880202A
:101D3000D1E7012481F880409CE784F8801066E7B1
:101D4000012481F8804024E7124C216821F002012F
:101D500021601EE70D4C216821F00201216056E749
:101D6000104C216821F00201216083E7114A1368B9
:101D700023F002031360AEE70000C84200FF7F4774
:101D80002C88FF1F089003401090034030900440BF
:101D90003400FE43349004401018FE433000FE43EC
:101DA0001890034010C004401C18FE4308800340F4
:101DB000308003401CC004404880034010B4214BD5
:101DC0001A7992060ED5204AD979137850780133C2
:101DD0003F2BC8BF00238342C9B203D0D018DBB267
:101DE000017113701749CB78DBB21C060DD459066C
:101DF00009D5144B1A79520605D5134900202C2217
:101E000081F87000DA7010BC70470A791006EED5C0
:101E10000D4A92F8444092F84500C0B284420ED078
:101E2000411C272986BF00200146C8B21144054C39
:101E300091F84810C9B2E17182F84500D7E76C22E9
:101E4000CA70D4E700C00640D494FF1FF0B4334BEF
:101E50001A7912F0300F22D072B6997D01F0FF028C
:101E600000292FD062B62E4D95F8710095F872704A
:101E70001C46C0B2FFB2431C402BE17928BF0023AF
:101E8000BB4202F1FF32C9B203D0EE18184686F801
:101E9000741012F0FF02EED1C0B285F871001F4934
:101EA000CA78D2B2150612D4510609D51B4B1A793D
:101EB000520605D51A4900203C2281F8E000DA706C
:101EC000F0BC70474022D9795A7462B6E7E70B79C3
:101ED0001C06E9D5124D95F8B44095F8B530E4B23A
:101EE000DBB29C4202D10EE0A3420CD00133282B7E
:101EF00028BF0023E8180E7990F8B800C0B2C87166
:101F0000087D0728F0D9DBB2044985F8B5300B7994
:101F1000180644BF7C23CB70C6E700BF00B0064064
:101F2000D494FF1FF0B4334B1A7912F0300F22D043
:101F300072B6997D01F0FF0200292FD062B62E4DB6
:101F400095F8E10095F8E2701C46C0B2FFB2431C60
:101F5000402BE17928BF0023BB4202F1FF32C9B216
:101F600003D0EE18184686F8E41012F0FF02EED106
:101F7000C0B285F8E1001F49CA78D2B2150612D462
:101F8000510609D51B4B1A79520605D51A4900206E
:101F90003C2281F86801DA70F0BC70474022D979A0
:101FA0005A7462B6E7E70B791C06E9D5124D95F82D
:101FB000244195F82531E4B2DBB29C4202D10EE017
:101FC000A3420CD00133402B28BF0023E8180E7920
:101FD00090F82801C0B2C871087D0728F0D9DBB29B
:101FE000044985F825310B79180644BF7C23CB7052
:101FF000C6E700BF00A00640D494FF1F034AD2F8F2
:102000006C310133C2F86C31704700BFD494FF1FAC
:102010002DE9F041314D95F87031002B39D0D5F8CC
:10202000740120B100F0E2FC0023C5F874312B4CA0
:10203000DFF8C0802A4F2B4E72B6D5F8800140B130
:102040000188B4F88C314268C4F880215B1AA4F886
:102050008C3162B6E8B1C8EB0003A7FB03231B0970
:102060000B2BE9D895F8902112B194F8702192B910
:1020700072B64FF00041326821FA03F31A4332601E
:1020800062B672B6D5F880010028D9D162B60028B0
:10209000E1D1BDE8F08172B6134B1A6E9AB19A6E17
:1020A00032B162B6002384F8903100F09FFCC3E7A0
:1020B00094F890210D4999660830013AD86684F861
:1020C000902162B6B8E794F8902109491966083062
:1020D000013A586684F8902162B6ADE7D494FF1FA8
:1020E000398EE338E088FF1F0080FF1FC8004000E2
:1020F00088004000BC83FF1F134AD2F874311BB123
:102100005A881344187A704792F87031B3B110B4FA
:1021100072B6D2F8803143B11888B2F88C115C687D
:10212000C2F88041091AA2F88C1162B6C2F8743163
:102130003BB15A881344187A10BC70474FF0FF30F7
:1021400070474FF0FF30F7E7D494FF1F70B5344C61
:10215000D4F874313BB35A881988981801328A42EE
:10216000057A02D25A80284670BD2E4A2E499A1A04
:10217000A1FB021212090B2A10D894F89011284ED4
:1021800011B196F8701131BB72B628484FF000417A
:10219000036821FA02F21343036062B60023284663
:1021A000C4F8743170BD94F870318BB172B6D4F844
:1021B000803143B11988B4F88C215868C4F8800183
:1021C000521AA4F88C2162B6C4F87431002BC2D123
:1021D0004FF0FF3070BD72B6154A116EA1B1916E0D
:1021E00039B162B60022184686F8902100F0FEFB55
:1021F000D4E796F890110F48906608330139D366FA
:1022000086F8901162B6C9E796F890110A481066F0
:1022100008330139536686F8901162B6BEE700BFF5
:10222000D494FF1FBC83FF1F398EE338E088FF1F63
:102230000080FF1FC800400088004000054AD2F817
:102240007431B2F88C011BB11A885B88D31A184418
:10225000704700BFD494FF1F08B52D4E2D4C2E4D56
:1022600008E0236858050DD4236819050FD42368A6
:10227000DA0411D423685B03F3D500F0FFFB236875
:102280005805F1D5FFF74EFE23681905EFD5FFF786
:10229000DDFD2368DA04EDD52B799B060ED5EA79AE
:1022A000337870781A4901333F2BC8BF0023984216
:1022B000D2B203D0C818DBB202710B70EB78DBB27C
:1022C00018060AD45A06D5D52B795B06D2D500223A
:1022D0002C2386F87020EB70CCE72A791106F1D513
:1022E00096F8441096F84520D2B291420DD00132B2
:1022F000272A86BF00210A46D1B2324492F84820EC
:10230000D2B2EA7186F84510DCE76C22EA70D9E7B0
:10231000D494FF1F3480044000C0064008B5FFF786
:102320009BFF00BF254BD3F89421012183F8911125
:1023300032B150880022C0F1400083F891217047EB
:1023400093F8701119B9002083F89101704772B6A3
:10235000D3F8A41139B3496801320029FBD162B620
:10236000072AF0D810B472B6154C2168B1FA81F280
:102370000B2A1ADC4FF00040D04021EA0001216016
:1023800062B6104C02EBC202D200A1180020A0508D
:1023900048604888C3F894110022C0F1400083F8D7
:1023A000912110BC70470A46D9E762B6002200208E
:1023B000C3F8942183F89101F3E700BFD494FF1F81
:1023C000E088FF1FBC83FF1F30B44A4B93F8702195
:1023D00052B3D3F89421012183F89111002A2ED011
:1023E0000020518883F8A801118072B693F8AF11CC
:1023F000032944D8DFE801F01A1D02203E490520D8
:1024000083F8AF01148811F0080F14BFC82088208A
:10241000083240EA044081E8050062B60022C3F8B1
:102420009421002283F8912130BC70470320324967
:10243000E6E702203149E3E704203049E0E772B6DD
:102440002F4D2C68B4FA84F00B283DDC4FF000418E
:10245000C14024EA01042C6062B62A4983F8A8210D
:1024600000EBC000C0000C180A50626072B693F80E
:10247000AF21032A2FD8DFE802F0211E0D24D3F864
:10248000A4111C4821B3D0F8BC114A60C3F8BC2188
:1024900062B6C3E7184A0525085A83F8AF5112F00F
:1024A000080F14BFC8218821083441EA004182E89E
:1024B000120062B6B5E70225104AEDE703250E4A81
:1024C000EAE704250D4AE7E762B683F8A811A8E712
:1024D000C0F8A421DAE7D3F8A411064A31B1D2F842
:1024E000BC215460C3F8BC4162B69AE7C2F8A4416B
:1024F000F8E700BFD494FF1F9080FF1F9880FF1F54
:10250000E088FF1FBC83FF1F0846114600F010B98A
:1025100000B583B002A800F8011D012100F008F900
:1025200003B05DF804FB00BF074BDA7B920702D5CE
:10253000064A196A1160DB7B034A5B0702D5044B2C
:10254000526A1A60704700BFE088FF1F04E100E094
:1025500008E100E030B4184BDA7BC2B172B6DA7B26
:10256000D50705D515491A690C682240DA610A6059
:10257000DA7B1149940705D5114C4A6925682A4030
:102580000A622260DA7B0C4952070ED462B65B689D
:10259000DA68904207D00B4919600B4AD86040F0C6
:1025A000804119611A6030BC7047084C8A692568FF
:1025B0002A404A622260E9E7E088FF1F80E100E0EC
:1025C00084E100E001401F0000001F8088E100E07E
:1025D00010B5144C0023C4F8C031C4F8C431C4F899
:1025E000C831C4F8CC3172B60F4B104A1B68D4F80E
:1025F0006C01126862B6520102D5322B88BF0130DD
:102600000B49C3F5EA334FF47A72BF33A1FB0313CE
:1026100002FB00F000EB931006F072FDC4F8D0014D
:1026200010BD00BFD494FF1F18E000E004ED00E0EF
:102630008988888819498B6893E80500F0B4076891
:10264000174E184D184C3A4302604A6817481660F6
:10265000D56014611060487B154A1C180A3094F844
:10266000244053F8205002EBC40040680560087B0A
:102670001C1803EB8000247EC56902EBC40040688F
:102680000560897B581803EB810390F83000596B83
:1026900002EBC002F0BC536819607047E088FF1F6E
:1026A00001401F00011000380110007800001F8059
:1026B000989500000EB400B582B003AA054852F800
:1026C000041B019201F0FAFC02B05DF804EB03B0C8
:1026D000704700BF0889FF1FFEE700BF0A4908B521
:1026E0008B6B40B16A461844A2F58052904204D2E6
:1026F0008863184608BD184608BD01F03DFC0C2350
:1027000003604FF0FF3008BDE088FF1F036870B51D
:102710005B68064DAB42144605D10846114600F0F1
:1027200007F8204670BD9847204670BD0925000077
:102730002DE9F04F9A4A85B00123137003910029C7
:1027400000F00981DFF89CA2DFF874E2DFF898B2AC
:10275000894606E0934B05221A70B9F1000F00F08C
:10276000FA80DAF80020002A6DD05688C6F14003BE
:102770004B4528BF4B46F41802F10801A4B20025CE
:102780000191C3EB090954805F1E31448EF800505B
:10279000002B3DD006F108040C361644144400F119
:1027A000040C644538BFB0422CBF01260026092B1B
:1027B00094BF002606F00106002E3BD040EA040636
:1027C000B60737D11E1FB6080136022F4FEA860C16
:1027D0002ED9A0F104080292013558F8042F44F8CC
:1027E000042BAE42F8D89C45029A6144CCEB070713
:1027F00000EB0C0400F0928025780D70B7B165787D
:102800004D70012F12D0A4788C7003445488184660
:102810003F2C9FD94023138072B66349CB78032B9A
:1028200000F2B180DFE803F09E7EA1A40344EDE74F
:102830000446E1E70139034410F8014B01F8014F68
:102840009842F9D1E2E7DFF858C1584F584E594D38
:102850004DF2E904584B1B7803F0FF02002B2CD0FB
:1028600072B6564BDB68002B5AD000225B680132EF
:10287000002BFBD162B6072A26D9013C4CD09EF82A
:1028800000304F4A002B76D19BF80030002BE1D16D
:102890004C4A4D498BF800304C4B91F8008097F82A
:1028A000008096F8008095F8008012781B78424BE3
:1028B0001B7803F0FF02002BD2D1394B4FF0FF30D1
:1028C0001A7005B0BDE8F08F354A0123137072B657
:1028D0003F4B1A689846B2FA82F30B2B14DC4FF088
:1028E0000041D94022EA0102C8F8002062B6394A04
:1028F00003EBC30302EBC301002442F83340CAF8E0
:1029000000100A464C6030E762B60023013CCAF86A
:1029100000308CF80030B2D129492DE0234675E70C
:102920001A46A7E72C4B0224CC701188019A5A60F2
:1029300013F0080F0CBF8822C82242EA01421A6035
:1029400062B60023CAF80030164B05221A70B9F19E
:10295000000F7FF406AF0398114A0023137005B0EF
:10296000BDE8F08F03241D4BDEE705241B4BDBE79E
:102970000424194BD8E7114601234FF0FF300B70A8
:1029800005B0BDE8F08F0D4BDB682BB1144BD96857
:102990004A60DA6062B6D4E7084BDA60104BF8E7B9
:1029A0006596FF1F7C96FF1F8096FF1FB695FF1F41
:1029B0004595FF1F4695FF1F4496FF1F6C96FF1F0E
:1029C000A896FF1FD494FF1FB595FF1FD594FF1F36
:1029D000E088FF1FBC83FF1F9880FF1F9080FF1FB0
:1029E0008496FF1F6896FF1FB494FF1F1B4A1C4B61
:1029F000821AA3FB02231B090B2B11D810B4194A0E
:102A0000117811B11849097859B972B617484FF0C1
:102A10000041026821FA03F31A43026062B610BC57
:102A2000704772B612490C6E74B18C6E1CB162B6EE
:102A300000211170E9E713780E4C8C660830013BD9
:102A4000C866137062B6EAE713780B4C0C66083060
:102A5000013B4866137062B6E1E700BFBC83FF1F0D
:102A6000398EE3386496FF1F4496FF1FE088FF1FEE
:102A70000080FF1FC8004000880040002DE9F04F93
:102A8000DFF83493DFF834B385B05AE0BA4E9F08CC
:102A900006EBC708013DD8F8042003F00803EDB2A7
:102AA000A2F1080003F0FF04002B40F0278156F844
:102AB00037301B0C99B222F8081C002B00F015814E
:102AC000AE4B22F8064C42F8044C53F82520002A5D
:102AD00000F0F382DFF8C0A2AB000AEB0304246A23
:102AE0006060A74C0AEB030234F8153010621944F9
:102AF00024F8151072B6A3480268B2FA82F30B2BC1
:102B000000F3D2824FF00041D94022EA0102026074
:102B100062B69D4C9D489E4A03EBC30304EBC30180
:102B200018F0080F18BF024601F108050020C8F888
:102B3000045046F8372044F833004860082389F8E9
:102B4000003099F80030DBB25F071AD5914A12784D
:102B5000A2B19148017B01F0FF0221B1013AD2B24A
:102B6000027302B900BE8D48017801F0FF0229B15D
:102B7000013AD2B20270002A00F05682042289F88B
:102B8000002003F0080202F0FF01002A00F0DA80C2
:102B90009BF80030DBB21D097FF478AF9B08DFF8AB
:102BA000D88158F8332008EBC300C2F38302013AFE
:102BB00040680C2A00F29580DFE802F08787939343
:102BC000939393934A93939307000668DFF8C8A101
:102BD0004068CAF81400CAF81060B0B240F28166CA
:102BE00000246A4F48F833700125B042CAF81840F3
:102BF000C8F81040C8F818408AF81C505E4B00F224
:102C0000E580B0F5D06F80F0B683B0F5817F00F03D
:102C1000588300F29D82802800F08783822840F04C
:102C20005783BAF8143003F07F03042B00F250836B
:102C30005B488AF804409B0018448AF805400378F2
:102C40009C0740F189845046022400F8045F73E336
:102C5000DFF844A1DAF818305BB3BAF832009AF81A
:102C60001C509AF830404028064644F0020728BF1E
:102C70004026002D85F00105A0EB06000CBF4FF0AB
:102C8000880E4FF0C80E8AF81C5008EBC70580B2BA
:102C90004EEA064284F001046B60AAF8320048F85C
:102CA000372033448AF83040002800F03881CAF8D1
:102CB0001830BAF81030384AB3F5A06F11D100219E
:102CC000937C5174374A13700BE0DFF8CCA0BAF84C
:102CD000105042F22104A54200F025812B4A48F809
:102CE0003320314A0123137028E7284A284B18F073
:102CF000080F18BF134646F837301FE7FFF776FE78
:102D00002A492B4A51F82530002B00F007825868D9
:102D1000545D41F8250003F10801C8F80410032CA4
:102D200005D8DFE804F0504D2602042151551A88D9
:102D300018F0080F0CBF8823C82343EA024346F863
:102D40003730FBE6D80700F18781190600F1F681DC
:102D50009A0706D5174918480A780224D2B20A7091
:102D60000470DB0602D5144B10221A7005B0BDE8C2
:102D7000F08F05215155DAE70080FF1F4C96FF1FA9
:102D80005C96FF1FE088FF1FBC83FF1FC800400048
:102D9000880040004496FF1FA896FF1F7C96FF1FE7
:102DA000C020074098200740942007406C96FF1FE2
:102DB0008096FF1F88200740802007409020074012
:102DC00002215155B3E703215155B0E742F22106E4
:102DD000B04200F0258100F2DB80B0F5086F00F012
:102DE000C382B0F5106F40F07382186AB64C9AF83F
:102DF00012502570060600F10983D8F82830B34830
:102E00001D0600F17B83D8F83030B0481C0600F175
:102E10007083D8F83830AD48190600F16583D8F8CA
:102E20004030AA481A0600F15A83D8F84830A7481B
:102E30001B0600F14F83D8F85030A4481F0600F15C
:102E40004483D8F85830A1481E0600F13983D8F8D9
:102E500060309E481D0600F12E83D8F868309B48EC
:102E60001C0600F12383D8F870309848190600F149
:102E70001883D8F8783095481A0600F10D83D8F8F1
:102E8000803092481B0600F10183D8F888308F48C3
:102E90001F0600F1CC82D8F890308C481E0600F155
:102EA000C082D8F8983089481D0600F1B482884B5A
:102EB0000093884A884B0192884A894CCDF80CA02F
:102EC00000261F46009B029435469246186830B192
:102ED0004468FFF78BFD2046002CF9D1009B1D6054
:102EE0003868804B43F8265028B14468FFF77EFDD0
:102EF0002046002CF9D1019A9AF8003042F8045B80
:102F00000192029A3D60023B22F81650032B00F218
:102F10006581DFE813F0D3015F01D3015F01402E2B
:102F200018BF0023C3E60478467885788AF83440D1
:102F3000C4788AF835608AF836508AF83740DAF86B
:102F400034404579067980798AF83950862C9AF888
:102F500030509AF81C408AF83A0004BF0F208AF8D3
:102F60000C0045F00200002C85F001058AF8305075
:102F70000CBF8825C82548F8305008EBC00084F005
:102F8000010400258AF838608AF81C404560A5E6EF
:102F900042F22123984240F00B82534E5348366848
:102FA000534B06609AF81200187000231F461E4605
:102FB0001A4618469AF830E04EF0020C08EBCC01A5
:102FC000002D48600CBF8820C82006438EF0010009
:102FD00048F83C608AF81C408AF830003B4EDFF825
:102FE00024C1002B40F07B81402A19D140F002001F
:102FF00008EBC001354E4F601904002C40F082816F
:1030000041F0880146F830108AF81C508AF830E008
:103010001F44402B04D10023CAF81870AAF832309C
:10302000344A012313705CE6334A1278002A7FF495
:10303000A5AD324C2168002900F0A9804A880A8099
:1030400072B6264AD078032800F27D82DFE810F0BD
:10305000C801B501CB01CE011C4B264C19610220E1
:103060002070DFF8B4E0264818609860254A264DA5
:10307000264F274E99610D208EF80000FF20287002
:103080004FF09F0E387031702871012602F13C0517
:1030900002F17C0087F804E0267082F830105D6051
:1030A000D86005B0BDE8F08F62B61A4A13780021E7
:1030B000013346F83710137040E543F82500DFF878
:1030C00044A0AB000DE500BF4496FF1F0080FF1F2A
:1030D0004C96FF1F8496FF1F6C96FF1F8096FF1F64
:1030E0005C96FF1FC896FF1F4096FF1F8893FF1F27
:1030F0008493FF1F942007406596FF1F6896FF1F6B
:1031000088004000A896FF1F8820074080200740C5
:10311000982007406496FF1FC0200740535D032B93
:1031200000F2FC8001A151F823F000BF3D2B00000C
:103130003D2B00008931000083310000BF4AC048A8
:103140000D248021047011709A077FF50AAE01E604
:1031500040F20233984240F02581BAF8143003F06F
:103160007F03042B00F2B480BAF81240002C40F028
:10317000AF80B3489B001844037843F00203037008
:1031800013E701235355D9E400235355D6E472B60F
:10319000AC4D2C68B4FA84F20B2A00F3CF814FF0C7
:1031A0000040D04024EA00042C6062B6A64D02EB39
:1031B000C20005EBC00445F83010616072B6A34A46
:1031C000D178032900F2D481DFE811F0B2019D012A
:1031D000AF01B5014FF001038AF80030009B0136C2
:1031E0000433042E009307F104070AF1010A7FF467
:1031F0006DAE974C974E9848984ADDF80CA0984FC2
:1032000000234FF0150E19252370C8F830301370C5
:10321000C8F83830C8F85030C8F8583086F800E0A0
:10322000057072B6874E3568B5FA85F00B2800F345
:10323000A9814FF0004E2EFA00FE25EA0E053560FA
:1032400062B68149874D3D6600EBC00001EBC005C9
:1032500005F1080241F830307A666B6072B630686A
:10326000784DB0FA80F30B2B00F37A814FF00044D5
:10327000DC4020EA0400286062B6734D7A48C8F842
:10328000680003EBC30305EBC300002400F108064C
:1032900045F83340C8F86C604460744B15201870D2
:1032A0009AF81C50002385F00104C8F87030C8F863
:1032B0007830C8F89030C8F8983076E68AF8005030
:1032C0008CE7BAF8143003F07F03042B40F29180AE
:1032D0005B4A0F231370664A0123137001E5402BEC
:1032E0007FF684AE40F0020006EBC0014F609CB157
:1032F0005D498CF81C50403B8CF830E0403746F874
:10330000301089E641F0C8018AF81C508AF830E094
:103310001F4446F830107CE65249EAE718F0080FDF
:103320000CBF02230323535508E48AF804408AF8AB
:1033300005400AF104000224BAF816304D4DA342AC
:1033400080F02C8195F830E04EF0020C08EBCC04B4
:10335000402B1A4628BF4022606087189B1A16042B
:1033600000240125C82030E6434B50461B7800F866
:10337000043F2C46E0E7BAF81250BAF814603F4810
:103380003F4B03E00C3358680028A1D01A88AA42AA
:10339000F8D15A88B242F5D12D0A032D0CBF04781A
:1033A0001C89C9E7B0F5A06F92D100240125FCE586
:1033B00042F221339842F8D08AE732480225D5708C
:1033C0000D8810F0080F0CBF8822C822083142EA8D
:1033D00005424160026062B600222260FFF7CEBB68
:1033E00003252948EBE705252748E8E70425254874
:1033F000E5E7BAF81240002C7FF46AAF10489B0052
:103400001844037823F002030370CEE5586A0838A5
:10341000FFF7ECFAF1E4D0F89C000838FFF7E6FA81
:1034200045E5D0F894000838FFF7E0FA39E5D0F820
:103430008C000838FFF7DAFA2DE500BF802007403E
:10344000C0200740E088FF1FBC83FF1F8096FF1F3E
:103450006496FF1FC8200740CC200740C4200740C7
:103460000080FF1F88004000C8004000D0200740B7
:1034700094200740A896FF1F4496FF1F1C89FF1F3A
:103480004C9700009880FF1F9080FF1FD0F88400A9
:103490000838FFF7ABFAF8E4C06F0838FFF7A6FA70
:1034A000EDE4406F0838FFF7A1FAE2E4C06E083897
:1034B000FFF79CFAD7E4406E0838FFF797FACCE4A0
:1034C000C06D0838FFF792FAC1E4406D0838FFF785
:1034D0008DFAB6E4C06C0838FFF788FAABE4406CAC
:1034E0000838FFF783FAA0E4C06B0838FFF77EFACC
:1034F00095E4406B0838FFF779FA8AE4C06A083827
:10350000FFF774FA7FE42A49022611F0080F35F814
:103510003000D6700CBF8822C822083442EA00422C
:1035200081E8140062B6FFF729BB05262149ECE7C4
:1035300003262049E9E704261D49E6E762B6012291
:103540000270FFF71BBB1C4AD06808B31B4AD06847
:103550004160D16062B63FE702240AF10400EBE665
:1035600062B6237800200133C8F86800237094E61F
:10357000114AD16879B1114AD1684C60D46062B601
:10358000FFF7FCBA62B620783B66431C237065E601
:10359000D1600A4ADDE7D460084AEFE7402C2246B2
:1035A00028BF4022A31A160487180024012501E52C
:1035B0009880FF1F9080FF1F6C96FF1F8496FF1F4F
:1035C0002DE9F04F72B6DFF8D0E02C4B2C491B6888
:1035D000DEF80020096862B64E0102D5322B88BFA2
:1035E0000132002848D0C3F5EA33264FDFF88C803B
:1035F000DFF88CC0DFF8A490DFF8A4B0DFF8A4A057
:10360000BF334FF47A74A7FB031304FB02F404EBFB
:10361000931472B6D8F80010DEF80020DCF80050E1
:1036200062B6C1F5EA33BF33A7FB03636D01C4EB98
:1036300093134FF47A7602D5322988BF013206FB04
:103640000233B3F57A7F04D3013815D004F57A74C8
:10365000DFE799F80030002BDBD19BF8001089F8E8
:1036600000309AF80030084B084A1B78084B1B784A
:10367000084B1B781378CCE7BDE8F08F18E000E02A
:1036800004ED00E0898888884595FF1FD594FF1FC9
:103690004695FF1FD494FF1F4096FF1FB494FF1F51
:1036A000B595FF1FB695FF1F70B43A49CB7AEBB1C1
:1036B00072B6CB7ADC071A4606D5374CCA6825683D
:1036C0002A408A6122601A469B0706D5334C0B6953
:1036D0002568CA7A2B40CB612360560705D5304A4E
:1036E0004B69146823400B62136062B60B682D4A65
:1036F000DC68944206D02C4E2C4D2D4C1E60DA60B6
:103700001D611C602B4A92F8804240F08000002C22
:1037100035D1294A136823F0020313600B684FF078
:103720000042DA625863DA6A002AFCDA4FF000409D
:1037300000229C6BD8625A63DA6A002AFCDA1D4ABE
:10374000986B92F88032C0B2EBB1012382F88030DE
:10375000CB7A104C1A4683B1DD0703D5174AA4690A
:1037600014601A469C0703D5154BCC69CA7A1C60B5
:10377000530702D5134B0A6A1A6070BC70470124C4
:1037800082F80041CBE70C4A136843F0030313604F
:10379000DEE700BFE488FF1F80E100E084E100E095
:1037A00088E100E00320003801401F00032000787A
:1037B00000001F800C10FE430CB0044000E100E04C
:1037C00004E100E008E100E02DE9F04FB149B24A20
:1037D000DFF81493DFF814A3DFF814B3DFF81483D1
:1037E000AE4EAF4D002385B00B60AE49136002931F
:1037F000019300930B60AC4B01221A7032230393A8
:10380000A7E0A94B1B782920002B40F0EB80FFF7A5
:103810004BFF04462820FFF747FF40EA042000B290
:1038200005F072FCA149DAF8004005F075FD9D4BEA
:10383000196805F0B3FB214605F0B0FB9C4905F083
:10384000B7FC214605F0ACFBCAF800002B20FFF7BF
:103850002BFF04462A20FFF727FF40EA042000B28E
:1038600005F052FC9149DBF8004005F055FD894B0D
:10387000196805F093FB214605F090FB8C4905F093
:1038800097FC214605F08CFBCBF800002D20FFF7BC
:103890000BFF04462C20FFF707FF40EA042000B28C
:1038A00005F032FC834B81491C6805F035FD7A4BED
:1038B000196805F073FB214605F070FB7C4905F0A3
:1038C00077FC214605F06CFB7A4B186000F1004153
:1038D000DBF8000005F0B0F9774B78491C6805F07B
:1038E00067FC214605F05AFB214605F059FB714B58
:1038F0001968714B01F100411860DAF8000005F019
:103900009BF96F4B6D491C6805F052FC214605F090
:1039100045FB214605F044FB694BDAF800101860BE
:10392000009805F03DFBDBF800100090019805F0D1
:1039300037FB604B01906349186805F031FB014685
:10394000029805F02DFB039B0290013B039300F0CE
:10395000888072B6D8F80030D9F80020316862B695
:103960004F0102D5322B88BF0132C3F5EA33BF3392
:103970004FF47A74A5FB031304FB02F4DFF850C183
:1039800004EB93144FF47A70A64672B6D8F8001080
:10399000D9F80020346862B6C1F5EA33BF33A5FB1D
:1039A00003736401CEEB931302D5322988BF013231
:1039B00000FB0233B3F57A7FBFF423AF9CF80030ED
:1039C000002BE2D1404A41491278414A13700B78EA
:1039D000404A414B12781B78404A414B12781B7881
:1039E0007446CFE7FFF760FE04462820FFF75CFE31
:1039F00040EA042000B205F087FB2C4905F08CFC5E
:103A0000284B196805F0CAFACAF800002B20FFF706
:103A10004BFE04462A20FFF747FE40EA042000B28E
:103A200005F072FB214905F077FC1A4B196805F087
:103A3000B5FACBF800002D20FFF736FE04462C2007
:103A4000FFF732FE40EA042000B205F05DFB1749A3
:103A500005F062FC104B196805F0A0FA154B1860D0
:103A600034E700981F4905F057FC0E4B1D491860BC
:103A7000019805F051FC074B1A491860029805F0AF
:103A80004BFC094B9DF80C201A70034B186005B0D5
:103A9000BDE8F08F9093FF1F9493FF1F04ED00E0AB
:103AA000898888888C93FF1F6497FF1F0000C84295
:103AB0000AD7A33CA093FF1FA893FF1FE12E6542E6
:103AC000A493FF1F0AD72343B595FF1FB695FF1F89
:103AD000B494FF1F4595FF1F4695FF1FD494FF1F09
:103AE000D594FF1F000048424096FF1F9893FF1F88
:103AF0009C93FF1F18E000E0174B93F88022F2B16F
:103B0000012283F80021154B1B6800F07F004FF065
:103B10000042DA625863DA6A002AFCDA4FF00042A7
:103B2000986BDA625963DA6A002AFCDA0A4A9B6BFC
:103B300092F880324BB1012382F880307047084AF6
:103B4000136823F002031360DDE7054A136843F0AE
:103B500003031360704700BF1010FE43E488FF1F8B
:103B600010B00440704700BF214AF0B4166872B626
:103B7000204C214B21481B682168006862B6400137
:103B800002D5322B88BF01311D4F50681D4DC3F542
:103B9000EA33BF33A7FB0373C0EB93134FF47A7080
:103BA00000FB013145F8261072B6134B13491B6810
:103BB0002068096862B6490102D5322B88BF0130FE
:103BC0000F4C0B4DC3F5EA33BF334FF47A71A4FBAE
:103BD000034301FB00F101EB9313536013680133BE
:103BE00013601368092B04BF00232B60F0BC7047DF
:103BF0006897FF1F4096FF1F18E000E004ED00E00B
:103C0000898888884094FF1FBA4BBB48BB49DFF8BE
:103C100040C34FF400022DE9F0411A604FF080726A
:103C20001A604FF000721A604FF080621A604FF015
:103C300000621A60B24FB34EB34CB44DDFF814E3D8
:103C4000DFF814830022026028234EF6FF70CCF8C0
:103C50000000CEF800303B600B60336023602B60C7
:103C6000BB628B62092146F8241C06F57F66C4F806
:103C7000D82FC5F8D40FC7F8F83F05F5FF253360F6
:103C800007F5FF27C4F8D41F06F5FD2604F5FF2429
:103C900005F5FA6507F2F47706F5FF6604F5FD64AD
:103CA0000CF56F3C2A600CF2F93C38600EF53F5E73
:103CB00033602360A4F5FA24602345F8041C0EF158
:103CC0003C0E88F80030083C07F54057E1238CF89B
:103CD00000303921132306F5405605F54055CEF83E
:103CE00000108B4823601C3539608A493360842377
:103CF000026084B02A603220A3610B60FFF760FC91
:103D000072B6A5F51B25844B8448193D70224126C7
:103D10000F2480211A702E701A46047019701378BF
:103D20001B06FCD57E4B1B6862B67E4A7E4E9342D4
:103D30009CBF0A225343A6FB0312D20802EB820166
:103D4000A3EB410330338DF804301346002A00F012
:103D5000BD8001A804460021A6FB0352D20802EB55
:103D60008205A3EB4503303304F8013F01311346CC
:103D7000002AF1D104AC0C4401AA0A4404F80B3C1B
:103D80001478057800F8014B0133CC1AA34202F8ED
:103D90000159F5DB9DF80430002B00F09A80634A4E
:103DA0009DF805105380002900F099809DF8063099
:103DB0009180002B00F095809DF80710D38000299A
:103DC00000F091809DF808301181002B00F08D806B
:103DD0009DF809105381002900F089809DF80A3070
:103DE0009181002B00F0C0809DF80B10D381002939
:103DF00000F0BC809DF80C301182002B00F0BA80DE
:103E00009DF80D105382002900F0B2809182162196
:103E1000474B4848117000221A605A609A60DA6075
:103E20001A615A619A61DA611A625A629A62DA62B6
:103E30001A635A639A63DA631A645A649A64DA6496
:103E40001A655A659A65DA651A665A669A66DA6676
:103E50001A675A679A67DA670168DFF800C1C3F822
:103E6000802041F480210160334E344CDFF8F0E0D3
:103E7000334F344DDFF8EC80C3F307218CF800108A
:103E800000F52830C3F88420C3F307411B0E3170BE
:103E900050302370FF238EF800302B4E3B70154CB2
:103EA0002B702A49012388F8003070278CF8642091
:103EB0004FF40075037010224FF4AF703770256017
:103EC0000A7004B0BDE8F041FFF77ABB8DF8052019
:103ED00060E7164A194601314900C9B298E7012145
:103EE000F9E70221F7E70321F5E70421F3E70521CC
:103EF000F1E700BF08E100E0048003401C800340BC
:103F000014800340248003402C800340348003400D
:103F100020B0034024B00B400000024006000240E5
:103F2000080002407F969800CDCCCCCC3089FF1F92
:103F30000080FF1F34800440B0200740B4200740B9
:103F4000882007401020074049E400E0082107408E
:103F5000088003400C800340004007409C2007403D
:103F600080200740942007400621B4E70721B2E7EC
:103F70000921B0E70821AEE7014B1868704700BF80
:103F8000E88DFF1F70B50F4E0F4D761BB61018BF92
:103F9000002405D0013455F8043B9847A642F9D1D6
:103FA0000A4E0B4D761B05F053FDB61018BF0024CA
:103FB00006D0013455F8043B9847A642F9D170BDAC
:103FC00070BD00BF5C9A00005C9A0000649A00001B
:103FD0005C9A000070B4840746D0541E002A41D079
:103FE000CDB2034602E0621EE4B3144603F8015B5F
:103FF0009A07F8D1032C2ED9CDB245EA05250F2C0E
:1040000045EA054519D903F110022646103E0F2E48
:1040100042F8105C42F80C5C42F8085C42F8045C20
:1040200002F11002F2D8A4F1100222F00F0204F003
:104030000F041032032C13440DD91E462246043AB5
:10404000032A46F8045BFAD8221F22F00302043246
:10405000134404F003042CB1C9B21C4403F8011B3F
:10406000A342FBD170BC704714460346C2E700BFB1
:10407000F0B5ADF5057D04AD00930F4613464FF442
:10408000007403AA29460394064601F0A7FA88B1F2
:10409000044602463946039B304600F01BF8AC420A
:1040A000039004D03046214600F09CF803980DF5AB
:1040B000057DF0BD4FF0FF30F9E700BF10B4044CB0
:1040C00013460A460146206810BCFFF7D1BF00BF67
:1040D000E88DFF1F70B50D46084C114606461A467E
:1040E000284600232360FEF711FB431C00D070BD5F
:1040F0002368002BFBD0336070BD00BFA497FF1F67
:10410000024B13B1024800F005B8704700000000F0
:1041100021410000002301461A46184601F09CBACE
:1041200038B5074D074C2C1BA41005D0013C55F8A1
:10413000043D9847002CF9D1BDE8384005F092BC09
:104140000000000000000000F8B5234F0C460646B2
:1041500000F0A6FCBB685D6825F00305291B01F68D
:10416000EF7121F47F6121F00F01A1F58054B4F5C6
:10417000805F07DB0021304601F094F9BB682B44D7
:10418000984204D0304600F08DFC0020F8BD61421A
:10419000304601F087F901300DD0104BBA6819682C
:1041A0002D1B45F001053046091B5560196000F0D4
:1041B00079FC0120F8BD0021304601F073F9BA689E
:1041C000831A0F2BDEDD064C0449246843F00103FB
:1041D000001B53600860D5E7588FFF1F7C97FF1FB7
:1041E0006493FF1F002945D02DE9F0410D4680461C
:1041F00000F056FC55F8047C6A4927F00103A5F14C
:104200000804E2188E685068B24220F0030062D0C1
:10421000FE0750600BD455F8087CE41B01F1080E32
:10422000A56875453B446FD0E768EF60BD60151821
:104230006D68ED0742D543F001026260E350B3F5CB
:10424000007F18D2DB085A1C4D6851F83270A76005
:1042500001209B1000FA03F301EBC2001D43083854
:10426000E0604D6041F83240FC604046BDE8F041FE
:1042700000F018BC70475A0A042A53D89A0902F170
:1042800039077F0002F1380501EB870051F827203C
:104290004449083890424DD0516821F003018B42C7
:1042A00002D292689042F7D1D068E060A260846048
:1042B000D4604046BDE8F04100F0F4BB95683A4F49
:1042C000BD4203443FD0D068E86043F001028560FE
:1042D0006260E350B3E7FF07034407D455F8082CA6
:1042E000A41A1344A068E268C26090602F4A126862
:1042F00043F00100934260608C60B6D32C4B404683
:104300001968FFF721FFB0E711184968C90744D4BD
:104310009168D268CA60034443F001009160606014
:10432000E350A2E7142A17D802F15C077F0002F1DC
:104330005B05A9E7AA104B68012505FA02F21343B1
:104340004B600246B1E743F001024C610C61E5604D
:10435000A5606260E35088E7542A06D81A0B02F180
:104360006F077F0002F16E058EE7B2F5AA7F06D8CF
:10437000DA0B02F178077F0002F1770584E740F25B
:104380005450824206D89A0C02F17D077F0002F158
:104390007C0579E7FE277E2576E743F0010262601F
:1043A000E35062E7588FFF1F608FFF1F6093FF1F6E
:1043B0007897FF1F044A054B1268506B002808BF0E
:1043C0001846F030704700BFE88DFF1FEC8DFF1FCF
:1043D0002DE9F04F01F10B05162D83B0064640F292
:1043E0009F8035F0070500F1BF80A94200F2BC8034
:1043F00000F056FBB5F5FC7FC0F09C826B0A00F024
:10440000BA80042B00F28381A80900F1390E4FEA2B
:104410004E033830C44F07EB8303A3F108015C68F7
:10442000A14207D1ACE0002A80F2AC80E468A1424E
:1044300000F0A680636823F003035A1B0F2AF2DD05
:10444000B9493C6901F1080E744500F0B381636815
:1044500023F003035A1B0F2A00F39981002AC1F8A5
:1044600014E0C1F810E080F29E80B3F5007F80F088
:104470006781DB0803F1010C01229B1002FA03F3B0
:104480004A6851F83C80C4F8088001EBCC091A4313
:10449000A9F10803E3604A6041F83C40C8F80C40C9
:1044A000831001249C40944200F28A80144206D179
:1044B00020F003006400144200F10400FAD007EB7E
:1044C000C009CC468046DCF80C108C4507D173E15E
:1044D000002A80F28181C9688C4500F06D814B68AB
:1044E00023F003035A1B0F2AF2DD0C46D1F80CC04F
:1044F00054F8088F4B1945F001054D6042F0010159
:10450000C8F80CC03046CCF808807B613B61C3F82A
:104510000CE0C3F808E059609A5000F0C3FA1FE0BD
:10452000102921D800F0BCFA1025062302207E4F66
:1045300007EB8303A3F108025C68944200F0458115
:104540006368E168A56823F00303234430465A6892
:10455000E96042F001028D605A6000F0A3FA08346D
:10456000204603B0BDE8F08F00240C2320463360C2
:1045700003B0BDE8F08F80234FF0400E3F2049E7A5
:1045800070465DE72344E1685A68A56842F001027D
:10459000E96030468D605A6000F084FA08342046A5
:1045A00003B0BDE8F08F234430465A6842F0010260
:1045B0005A6000F077FA0834204603B0BDE8F08F67
:1045C000BC68636823F00308A84504D3C5EB08035F
:1045D0000F2B00F38C80554BDFF860911A68D9F8E7
:1045E000003001332A4404EB080A00F0608102F530
:1045F00080520F3222F47F6222F00F0211463046C1
:10460000019200F04FFFB0F1FF3F8346019A00F0A6
:104610005881824500F2FC80454B1968DA45114407
:10462000196000F05381D9F80000DFF810E1013083
:104630001BBFCAEB0B0A5144CEF800B019601BF047
:10464000070100F01781C1F10800C1F580518344D2
:1046500008315A44C2F30B02C2EB01094946304605
:10466000019300F01FFF431C019B00F03F81CBEB47
:1046700000024A4442F001021968C7F808B04944F0
:10468000BC42CBF804201960DFF8A49016D0B8F132
:104690000F0F40F2FD806268A8F10C0323F00703BE
:1046A000E01802F001024FF0050E1A430F2B626072
:1046B000C0F804E0C0F808E000F21C811D4BBC68A3
:1046C0001A68914288BF19601B4B1A689142626850
:1046D00088BF196022F003029542A2EB050301D8BE
:1046E0000F2B04DC304600F0DDF9002438E76219B6
:1046F00043F0010345F0010565603046BA60536040
:1047000000F0D0F90834204603B0BDE8F08F142B38
:1047100071D9542B00F2A480280B00F16F0E4FEAE0
:104720004E036E3076E600BF588FFF1F7897FF1F4D
:104730007C97FF1F7497FF1F7097FF1F6493FF1FE5
:104740005A0A042A5ED9142A00F2B38002F15C01ED
:1047500049005B3207EB810C57F82110DFF8DC8150
:10476000ACF1080C8C4500F088804A6822F0030206
:10477000934202D289688C45F7D1D1F80CC07A688F
:10478000C4F80CC0A160CCF80840CC6088E663197E
:1047900042F0010745F00105656030464B610B6151
:1047A000C3F80CE0C3F808E05F609A50083400F0EA
:1047B00079F9D5E64A6873E608F1010818F0030FA5
:1047C0000CF1080C7FF47FAE30E0DC68A34208BF38
:1047D00002303FF435AEB3E60B440C465A68C96864
:1047E00054F8085F42F001025A603046E9608D607B
:1047F00000F058F9B4E603F15C0E03F15B004FEAF8
:104800004E0307E69A0902F1390149003832A1E75F
:10481000BC424A4B3FF400AF9C68626822F003023E
:104820005AE759F80839994540F0828010F0030F93
:1048300000F1FF30F5D17B6823EA04037B6064005C
:104840009C423FF6BDAE002C3FF4BAAE1C4240463F
:104850007FF435AE64001C4200F10400FAD02EE66D
:10486000B3F5AA7F18D8E80B00F1780E4FEA4E0393
:104870007730CFE54FF48051EBE60121D8F80430D2
:10488000921001FA02F21A43C8F80420614677E751
:104890000123CBF8043025E740F25452934220D84C
:1048A000A80C00F17D0E4FEA4E037C30B2E51032C9
:1048B000A4E6542A26D81A0B02F16F0149006E3281
:1048C00048E7BC68626822F0030205E7CAF30B0000
:1048D00000287FF4A8AE4244BB6842F001025A604F
:1048E000ECE6FE234FF07F0E7E2093E501224FF091
:1048F0000009C1E604F108013046FFF773FCD9F85E
:104900000010DBE6B2F5AA7F05D8DA0B02F17801D8
:10491000490077321EE740F254518A4205D89A0C7A
:1049200002F17D0149007C3214E7FE217E2211E76D
:104930007B6884E7E808431C5B00F8E5588FFF1F9D
:1049400082B049B15AB16BB113780B601278101C68
:1049500018BF012002B0704701A9002AF3D1104608
:1049600002B070476FF00100F4E700BF844641EAEF
:10497000000313F003036DD1403A41D351F8043BD7
:1049800040F8043B51F8043B40F8043B51F8043B29
:1049900040F8043B51F8043B40F8043B51F8043B19
:1049A00040F8043B51F8043B40F8043B51F8043B09
:1049B00040F8043B51F8043B40F8043B51F8043BF9
:1049C00040F8043B51F8043B40F8043B51F8043BE9
:1049D00040F8043B51F8043B40F8043B51F8043BD9
:1049E00040F8043B51F8043B40F8043B51F8043BC9
:1049F00040F8043B51F8043B40F8043B403ABDD238
:104A0000303211D351F8043B40F8043B51F8043BD9
:104A100040F8043B51F8043B40F8043B51F8043B98
:104A200040F8043B103AEDD20C3205D351F8043B68
:104A300040F8043B043AF9D2043208D0D2071CBF34
:104A400011F8013B00F8013B01D30B88038060465D
:104A5000704700BF082A13D38B078DD010F00303D3
:104A60008AD0C3F10403D21ADB071CBF11F8013B43
:104A700000F8013B80D331F8023B20F8023B7BE792
:104A8000043AD9D3013A11F8013B00F8013BF9D2BD
:104A90000B7803704B7843708B7883706046704757
:104AA000704700BF704700BFC36C70B505460C4629
:104AB0004BB153F8240080B1026843F8242000234E
:104AC0000361C36070BD2122042100F017FEE86479
:104AD00003460028EDD1002070BD012101FA04F643
:104AE000721D2846920000F009FE0028F3D04460B1
:104AF0008660E4E731B1C36C4A6853F8220008606D
:104B000043F82210704700BFF0B50C6983B00D4622
:104B1000064601F1140E0027DEF8000081B202FB08
:104B200001310B0C000C02FB003389B2013701EBA1
:104B30000341BC424EF8041B4FEA1343ECDC3BB18B
:104B4000AA68944207DA05EB8402013453612C61B0
:104B5000284603B0F0BD6968019301313046FFF784
:104B6000A3FF2A69023205F10C01074692000C30BE
:104B7000FFF7FCFEF26C6968019B52F82100286087
:104B800042F821503D46DEE7030C1B04B3B9000494
:104B9000102310F07F4F04BF0002083310F0704F55
:104BA00004BF0001043310F0404F04BF8000023303
:104BB000002807DB420003D4202070470023E8E7E9
:104BC000581C704718467047036813F0070207D057
:104BD000D90720D49A0720D49B080360022070478D
:104BE00099B209B91B0C102213F0FF0F04BF1B0A66
:104BF0000832190704BF1B090432990704BF9B0838
:104C00000232D90704D45B0801D120207047013259
:104C1000036010467047002070475B080360012066
:104C2000704700BF10B50C460121FFF73DFF012280
:104C30004461026110BD00BF2DE9F04F0D69176995
:104C4000BD4283B00C46164604DA2A4634463D4639
:104C50000E461746A368616805EB07089845C8BF6C
:104C60000131FFF721FF00F1140C0CEB8809CC4552
:104C7000009005D26346002143F8041B9945FBD8F8
:104C800006F1140202EB870A04F11403524503EB08
:104C9000850E54D2CDF80490994652F8043B1FFA81
:104CA00083FBBBF1000F20D000204F46664605462F
:104CB00000E01E4657F8044B3068A1B283B20BFBEC
:104CC0000131240C000C4B190BFB040000EB1340CA
:104CD00099B2334641EA0041BE454FEA104543F8D8
:104CE000041BE6D8756052F8043C5FEA134B20D0F1
:104CF000DCF80030674618464D46002100E0374694
:104D00002C88000C0BFB040001449CB23E4644EA94
:104D1000014346F8043B786855F8044B83B2240CF1
:104D20000BFB043404EB1143AE454FEA1341E6D8C4
:104D30007B6092450CF1040CAFD8DDF80490B8F11B
:104D4000000F0BDD59F8043CA9F104091BB105E083
:104D500059F8043D13B9B8F10108F9D10098C0F829
:104D6000108003B0BDE8F08F12F003032DE9F0418D
:104D7000144607462ED10E46A4101CD0BD6C95B328
:104D8000E3074FF0000806D4641014D02868A8B1D7
:104D90000546E307F8D52A4631463846FFF74CFF6B
:104DA000B6B17268FB6C641053F82210316043F89E
:104DB00022600646EAD13046BDE8F0812A462946FF
:104DC0003846FFF739FF2860C0F800800546E0E765
:104DD0000646D9E75A1E0B4D002355F82220FFF74F
:104DE00093FE0646C8E701213846FFF75DFE40F214
:104DF000712101220023416102610546B86403600C
:104E0000BEE700BF809800002DE9F04791460A698F
:104E10008B684FEA691404EB020808F101059D4212
:104E20000E468246496804DD5B009D4201F10101A6
:104E3000FADC5046FFF738FE002C00F1140238DD92
:104E400002EB8403002142F8041B9342FBD1346936
:104E500006F1140119F01F0901EB840E21D0C9F1EC
:104E6000200200240F6807FA09FC4CEA04049C465F
:104E700043F8044B51F8044B8E4524FA02F4F1D860
:104E8000CCF804400CB108F10205DAF84C30726835
:104E9000013D53F822100561316043F82260BDE8FE
:104EA000F087043B51F8042B43F8042F8E45F9D8C2
:104EB000EBE71346CBE700BF02690B69D21A12D1A8
:104EC0009B0014301431194410B4034401E098429B
:104ED0000BD253F8044D51F8042D9442F7D007D368
:104EE000012010BC704710467047002010BC70476E
:104EF0004FF0FF30F5E700BF2DE9F8430B690F468F
:104F000011695B1A002B904617D1890007F1140232
:104F100008F114055318294401E09A425ED253F86F
:104F2000046D51F8044DA642F7D060D23B461446BA
:104F300047464FF00109984606E05DDB07F114058E
:104F400002F114044FF000097968FFF7ADFDD8F8BD
:104F500010303E69C0F80C9004EB830CA64605EBBC
:104F6000860700F1140400235EF8041B55F8048B37
:104F70008AB213FA88F3090C9A1AC1EB184303EBAF
:104F8000224392B242EA0342F44544F8042B4FEA2A
:104F90002343E9D8AF4217D9A446294651F804EB78
:104FA00013FA8EF2131403EB1E4392B242EA034249
:104FB0008F424CF8042B4FEA2343EFD8ED433D4496
:104FC00025F0030504352C44043C22B954F8043D73
:104FD000013E002BFAD00661BDE8F8830021FFF7FF
:104FE00063FD0122002302614361BDE8F8832C4682
:104FF0004FF000091546A7E73B4607F1140408F1F6
:10500000140547464FF0010998469DE72DE9F04108
:1050100082B001211C46C3F30A571546089EFFF7CC
:1050200043FDC4F3130480460FB144F4801401948B
:105030001DB302A840F8085DFFF7C6FD002834D173
:105040009DE80C00C8F81420002B0CBF01210221A0
:10505000C8F81830C8F81010DFB908EB8103A0F2C7
:10506000324030601869FFF78FFD099BC0EB41109B
:105070001860404602B0BDE8F08101A8FFF7A4FD2A
:10508000019BC8F8143001212030C8F81010002FFF
:10509000E3D0099BA7F233470744C0F135003760DE
:1050A0001860404602B0BDE8F0819DE80C00C0F1F8
:1050B000200103FA01F10A43C3400193C8F8142008
:1050C000C2E700BF2DE9F04F174683B0002900F07A
:1050D000C1800E46814607F10B05FFF7E1FC56F84B
:1050E00004EC162D2EF00304A6F1080840D8102277
:1050F0001546AF4241D8944275DAC94B996808EB1E
:1051000004008842416800F0D98021F00103034483
:105110005B68DB077DD51EF0010F35D03946484668
:10512000FFF756F90746E0B156F8043C23F00103B7
:105130004344A0F108029A4200F04481221F242A2D
:1051400000F23181132A00F20481034632461168CD
:1051500019605168596092689A6031464846FFF775
:1051600041F84846FFF79EFC384603B0BDE8F08F93
:1051700025F00705002D2A46BBDA0C230020C9F8CC
:10518000003003B0BDE8F08F56F8083CC3EB080AC6
:10519000DAF8043023F0030C04EB0C039342BDDB7C
:1051A0005746DAF80C1057F8080F221F242AC1605E
:1051B000886000F21781132A40F212813168CAF820
:1051C00008107168CAF80C101B2A00F22B810836EF
:1051D0000AF110023168116071685160B168916024
:1051E0003E461C46D046631B0F2B1DD8D8F8043012
:1051F00003F0010323434444C8F80430636843F0D8
:10520000010363604846FFF74DFC304603B0BDE83C
:10521000F08F21F003012144914221DBC3688268B1
:105220000C46D3609A60DEE7D8F8042008EB05014D
:1052300002F00102154343F001020B44C8F8045088
:105240004A605A6842F0010208315A604846FEF747
:10525000C9FFD7E7114603B0BDE8F04FFFF7B8B874
:105260001EF0010F7FF45AAF56F8083CC3EB080A52
:10527000DAF8043023F0030C01EB0C0E96458BDBBF
:10528000C36882685746D3609A6057F8081FDAF8F7
:105290000C30CB60221F242A996000F29980132AD7
:1052A00062D93368CAF808307368CAF80C301B2A10
:1052B00000F2A08008360AF1100356E021F0030B3B
:1052C000A34405F11000834559DA1EF0010F7FF465
:1052D00025AF56F8081CC1EB080ADAF8041021F0D3
:1052E000030CE34458453FF757AF5746DAF80C1024
:1052F00057F8080F221F242AC160886000F2B4808A
:10530000132A40F2A5803168CAF808107168CAF8FB
:105310000C101B2A00F2AF8008360AF11002316827
:10532000116071685160B16891600AEB0501C5EBCD
:105330000B0242F0010299604A60DAF8043003F08F
:1053400001031D434846CAF80450FFF7ABFB38463B
:105350005CE733680360736843601B2A27D800F159
:10536000080306F10802F2E63B4632681A607268EA
:105370005A60B2689A603E467446D04633E708EBFE
:105380000501C5EB0B0B4BF0010299604A6056F822
:10539000043C03F001031D43484646F8045CFFF754
:1053A00081FB304632E7314601F09AF9D5E6B36821
:1053B0008360F368C360242A28D000F1100306F14B
:1053C0001002C4E650F8043C23F003031C440AE72F
:1053D000314638467446D04601F082F93E4602E72F
:1053E0003A46F7E6314638461C46D04601F078F991
:1053F0003E46F8E6B368CAF81030F368CAF81430CD
:10540000242A1BD010360AF11803AEE73369036172
:105410007369436106F1180200F1180397E600BFB3
:10542000588FFF1FB168CAF81010F168CAF814103D
:10543000242A0FD010360AF11802CBE63369CAF8D5
:1054400018307369CAF81C3018360AF120038CE74B
:105450003A4664E73269CAF818207269CAF81C2013
:1054600018360AF12002B5E631463846019301F0BC
:1054700037F9019B59E7B168CAF81010F168CAF80A
:105480001410242A03D010360AF1180247E73269B3
:10549000CAF818207269CAF81C2018360AF12002CE
:1054A0003DE700BF38B5074C00230546084623609A
:1054B000FDF714F9431C00D038BD2368002BFBD046
:1054C0002B6038BDA497FF1FFFFFFFFFFFFFFFFF0B
:1054D000FFFFFFFFFFFFFFFFFFFFFFFFFFFFFFFFDC
:1054E000FFFFFFFFFFFFFFFFFFFFFFFFFFFFFFFFCC
:1054F000FFFFFFFFFFFFFFFFFFFFFFFFFFFFFFFFBC
:1055000090F800F06DE9024520F007016FF0000C03
:1055100010F0070491F820F040F049804FF00004AB
:105520006FF00700D1E9002391F840F000F1080086
:1055300082FA4CF2A4FA8CF283FA4CF3A2FA8CF3BE
:105540004BBBD1E9022382FA4CF200F10800A4FA25
:105550008CF283FA4CF3A2FA8CF3E3B9D1E9042379
:1055600082FA4CF200F10800A4FA8CF283FA4CF3B0
:10557000A2FA8CF37BB9D1E9062301F1200182FA6A
:105580004CF200F10800A4FA8CF283FA4CF3A2FA70
:105590008CF3002BC6D0002A04BF04301A4612BA7E
:1055A000B2FA82F2FDE8024500EBD2007047D1E981
:1055B000002304F00305C4F100004FEAC50514F010
:1055C000040F91F840F00CFA05F562EA05021CBFE1
:1055D00063EA050362464FF00004A9E770B515467B
:1055E0009AB0146809B1002C1AD100244FF4227229
:1055F000ADF80C20009404941A464FF6FF761E9BDB
:10560000029469460594ADF80E6001F0CDF80028CB
:1056100011DB009B286000221A7004981AB070BD3C
:105620004FF4C16200910491ADF80C20E4DA8B23B1
:1056300003600020F2E70020F0E700BF21B1FF2A5D
:1056400004D80A7001207047084670478A23036017
:105650004FF0FF30704700BF2DE9F047254C25681B
:10566000D5F848410646884692469946C4B36068D4
:105670001F2817DC431C76B104EB80050122C5F816
:1056800088A0D4F8881182401143022EC4F88811F2
:10569000C5F808911ED00230636044F820800020D5
:1056A000BDE8F087144B03B34FF4C870AFF300802C
:1056B0000446D0B1D5F84831002780E88800C5F805
:1056C000484138460123C4F88871C4F88C71002E13
:1056D000E1D0D1E7D4F88C110A43C4F88C21DAE781
:1056E00005F5A674C5F84841C1E74FF0FF30BDE8A5
:1056F000F08700BFA09700000000000010B502FB7B
:1057000001F1FEF765FE0446D8B150F8042C22F0F2
:105710000302043A242A18D8132A14D900231B2A76
:105720000360436016D9242A8360C36011BF00F16F
:1057300010020361436100F11802002313605360FB
:105740009360204610BD0246F7E70021FEF742FCB9
:10575000204610BD00F10802EFE700BF02690B69A7
:10576000934200F38D802DE9F04F03F1FF3801F1F2
:10577000140700F1140B57F828205BF828304FEA83
:10578000880483B00132B3FBF2F90BEB04030094FD
:1057900007EB040A0193B9F1000F39D00025BC468C
:1057A000DE462B465CF8046BDEF80020B4B209FB41
:1057B0000455360C2C0C09FB0644ADB25B1BA6B29B
:1057C00013FA82F3C6EB124606EB23469BB243EA7A
:1057D0000643E2454EF8043B4FEA14454FEA2643A0
:1057E000E0D2009B5BF8033093B9019C231F9B45DB
:1057F0000CD254F8043C4BB9A4F1080302E01A6837
:10580000043B1AB99B4508F1FF38F8D3C0F8108063
:105810000446FFF751FB00282EDB09F101095D4624
:10582000002357F8041B28688AB29A1A090C12FA46
:1058300080F2C1EB104303EB224391B241EA0341F2
:10584000BA4545F8041B4FEA2343EAD25BF8282007
:105850000BEB880382B91A1F93450BD253F8042C23
:1058600042B9083B02E01A68043B1AB99B4508F1AB
:10587000FF38F8D3C4F81080484603B0BDE8F08F75
:1058800000207047FFFFFFFF2DE9F04F016C97B03C
:105890008146239C92469B4649B1426C4A60012353
:1058A00093408B60FFF726F90023C9F84030BBF125
:1058B000000FD84633DB00232360A54B1A4608EAC5
:1058C0000303934214D0504659460022002302F0AD
:1058D000B7FF054648B3229A01231360249B002B8F
:1058E00000F0C5809B481860013817B0BDE8F08F04
:1058F000229A42F20F731360BAF1000F00F0A280F7
:105900009548249B002BF0D0C378002B00F0B18089
:1059100000F10803249A136017B0BDE8F08F01234B
:105920002BF000482360C346C7E714AA15AB0192C9
:10593000009352465B464846FFF768FB5FEA1854FF
:10594000089040F08880149D159C2C4404F232434A
:10595000202B40F39182C3F1400304F2124008FA75
:1059600003F82AFA00F040EA080002F08BFC012359
:10597000013CA1F1F87110930022784B02F044FB36
:105980006DA3D3E9002302F0F3FC6DA3D3E9002358
:1059900002F03CFB064620460F4602F083FC6AA359
:1059A000D3E9002302F0E4FC02460B4630463946B8
:1059B00002F02CFB06460F4602F08AFF00220490FC
:1059C00000233046394602F045FF002840F030827F
:1059D000049E162E00F22982614B03EBC603D3E925
:1059E000000152465B4602F053FF002800F0498256
:1059F000731E049300230C932C1B631E029300F16F
:105A0000328200230593049B002BC0F22382029A6A
:105A10000B9311461944002302910A93209B092BF2
:105A200029D8052B40F35886043B20930025209B62
:105A3000023B032B00F23586DFE813F02C0328022B
:105A400037035904444B474AC8F31300002814BFD6
:105A50001846104655E7CBF3130343F07F511095DA
:105A60005046A4F2FF3441F44011149D84E73E48AF
:105A70003BE7C31C4EE70021C9F84410484620917B
:105A8000FFF712F84FF0FF330693209A0D9301238E
:105A900007902192C9F840000993159B002BC0F292
:105AA000D180049A0E2A00F3CD802D4B03EBC20364
:105AB000D3E90034CDE90234219B002BC0F20083EE
:105AC00056465F4650465946DDE902AB52465B46B4
:105AD00002F078FD02F0FCFE044602F0E3FB5246C1
